:020000040000fa
:080000000002040000000000f2
:020000040000fa
:0400080032030000bf
:020000040000fa
:04000c0032030000bb
:020000040000fa
:0400100032030000b7
:020000040000fa
:0400140032030000b3
:020000040000fa
:0400180032030000af
:020000040000fa
:04001c0032030000ab
:020000040000fa
:0400200032030000a7
:020000040000fa
:0400240032030000a3
:020000040000fa
:04002800320300009f
:020000040000fa
:04002c00320300009b
:020000040000fa
:040030003203000097
:020000040000fa
:040034003203000093
:020000040000fa
:04003800320300008f
:020000040000fa
:04003c00320300008b
:020000040000fa
:04004000c8020000f2
:020000040000fa
:040044003203000083
:020000040000fa
:04004800320300007f
:020000040000fa
:04004c00320300007b
:020000040000fa
:040050003203000077
:020000040000fa
:040054003203000073
:020000040000fa
:04005800320300006f
:020000040000fa
:04005c00320300006b
:020000040000fa
:040060003203000067
:020000040000fa
:040064003203000063
:020000040000fa
:04006800320300005f
:020000040000fa
:04006c00320300005b
:020000040000fa
:040070003203000057
:020000040000fa
:040074001403000071
:020000040000fa
:04007800320300004f
:020000040000fa
:04007c00320300004b
:020000040000fa
:040080003203000047
:020000040000fa
:040084003203000043
:020000040000fa
:04008800320300003f
:020000040000fa
:04008c00f40200007a
:020000040000fa
:040090003203000037
:020000040000fa
:040094003203000033
:020000040000fa
:04009800320300002f
:020000040000fa
:04009c00320300002b
:020000040000fa
:0400a0003203000027
:020000040000fa
:0400a4003203000023
:020000040000fa
:0400a800320300001f
:020000040000fa
:0400ac00320300001b
:020000040000fa
:0400b0003203000017
:020000040000fa
:0400b4003203000013
:020000040000fa
:0400b800320300000f
:020000040000fa
:0400bc00320300000b
:020000040000fa
:0400c0003203000007
:020000040000fa
:0400c4003203000003
:020000040000fa
:0400c80032030000ff
:020000040000fa
:0400cc0032030000fb
:020000040000fa
:0400d00032030000f7
:020000040000fa
:0400d40032030000f3
:020000040000fa
:0400d80032030000ef
:020000040000fa
:0400dc0032030000eb
:020000040000fa
:0400e00032030000e7
:020000040000fa
:0400e40032030000e3
:020000040000fa
:0400e80032030000df
:020000040000fa
:0400ec0032030000db
:020000040000fa
:0400f00032030000d7
:020000040000fa
:0400f40032030000d3
:020000040000fa
:0400f80032030000cf
:020000040000fa
:0400fc0032030000cb
:020000040000fa
:0401000032030000c6
:020000040000fa
:0401040032030000c2
:020000040000fa
:0401080032030000be
:020000040000fa
:04010c0032030000ba
:020000040000fa
:0401100032030000b6
:020000040000fa
:0401140032030000b2
:020000040000fa
:0401180032030000ae
:020000040000fa
:04011c0032030000aa
:020000040000fa
:0401200032030000a6
:020000040000fa
:0401240032030000a2
:020000040000fa
:04012800320300009e
:020000040000fa
:04012c00320300009a
:020000040000fa
:040130003203000096
:020000040000fa
:040134003203000092
:020000040000fa
:04013800320300008e
:020000040000fa
:04013c00320300008a
:020000040000fa
:040140003203000086
:020000040000fa
:040144003203000082
:020000040000fa
:04014800320300007e
:020000040000fa
:04014c00320300007a
:020000040000fa
:040150003203000076
:020000040000fa
:040154003203000072
:020000040000fa
:04015800320300006e
:020000040000fa
:04015c00320300006a
:020000040000fa
:040160003203000066
:020000040000fa
:040164003203000062
:020000040000fa
:04016800320300005e
:020000040000fa
:0402080032030000bd
:020000040000fa
:04020c0032030000b9
:020000040000fa
:0402100032030000b5
:020000040000fa
:0402140032030000b1
:020000040000fa
:0402180032030000ad
:020000040000fa
:04021c0032030000a9
:020000040000fa
:0402200032030000a5
:020000040000fa
:0402240032030000a1
:020000040000fa
:04022800320300009d
:020000040000fa
:04022c003203000099
:020000040000fa
:040230003203000095
:020000040000fa
:040234003203000091
:020000040000fa
:04023800320300008d
:020000040000fa
:04023c003203000089
:020000040000fa
:04024000c8020000f0
:020000040000fa
:040244003203000081
:020000040000fa
:04024800320300007d
:020000040000fa
:04024c003203000079
:020000040000fa
:040250003203000075
:020000040000fa
:040254003203000071
:020000040000fa
:04025800320300006d
:020000040000fa
:04025c003203000069
:020000040000fa
:040260003203000065
:020000040000fa
:040264003203000061
:020000040000fa
:04026800320300005d
:020000040000fa
:04026c003203000059
:020000040000fa
:040270003203000055
:020000040000fa
:04027400140300006f
:020000040000fa
:04027800320300004d
:020000040000fa
:04027c003203000049
:020000040000fa
:040280003203000045
:020000040000fa
:040284003203000041
:020000040000fa
:04028800320300003d
:020000040000fa
:04028c00f402000078
:020000040000fa
:040290003203000035
:020000040000fa
:040294003203000031
:020000040000fa
:04029800320300002d
:020000040000fa
:04029c003203000029
:020000040000fa
:0402a0003203000025
:020000040000fa
:0402a4003203000021
:020000040000fa
:0402a800320300001d
:020000040000fa
:0402ac003203000019
:020000040000fa
:0402b0003203000015
:020000040000fa
:0402b4003203000011
:020000040000fa
:0402b800320300000d
:020000040000fa
:0402bc003203000009
:020000040000fa
:0402c0003203000005
:020000040000fa
:0402c4003203000001
:020000040000fa
:0402c80032030000fd
:020000040000fa
:0402cc0032030000f9
:020000040000fa
:0402d00032030000f5
:020000040000fa
:0402d40032030000f1
:020000040000fa
:0402d80032030000ed
:020000040000fa
:0402dc0032030000e9
:020000040000fa
:0402e00032030000e5
:020000040000fa
:0402e40032030000e1
:020000040000fa
:0402e80032030000dd
:020000040000fa
:0402ec0032030000d9
:020000040000fa
:0402f00032030000d5
:020000040000fa
:0402f40032030000d1
:020000040000fa
:0402f80032030000cd
:020000040000fa
:0402fc0032030000c9
:020000040000fa
:0403000032030000c4
:020000040000fa
:0403040032030000c0
:020000040000fa
:0403080032030000bc
:020000040000fa
:04030c0032030000b8
:020000040000fa
:0403100032030000b4
:020000040000fa
:0403140032030000b0
:020000040000fa
:0403180032030000ac
:020000040000fa
:04031c0032030000a8
:020000040000fa
:0403200032030000a4
:020000040000fa
:0403240032030000a0
:020000040000fa
:04032800320300009c
:020000040000fa
:04032c003203000098
:020000040000fa
:040330003203000094
:020000040000fa
:040334003203000090
:020000040000fa
:04033800320300008c
:020000040000fa
:04033c003203000088
:020000040000fa
:040340003203000084
:020000040000fa
:040344003203000080
:020000040000fa
:04034800320300007c
:020000040000fa
:04034c003203000078
:020000040000fa
:040350003203000074
:020000040000fa
:040354003203000070
:020000040000fa
:04035800320300006c
:020000040000fa
:04035c003203000068
:020000040000fa
:040360003203000064
:020000040000fa
:040364003203000060
:020000040000fa
:04036800320300005c
:020000040000fa
:10040000cf8120000eff20000e01880000000000b8
:10041000000020000000e000020032000001200087
:100420002002880014000700900007000000e00090
:1004300003003a00e04221000100200002003700e2
:100440000000200001002000810f70000100320038
:1004500014000700000020000000e000020032004d
:1004600000000200000000000e1402000000000066
:100470000040da000000fe004440a9000000200017
:100480000000e0000300320000002000a00188000e
:100490004440a800000006008a1f78008b1f7800e7
:1004a0000000060091018800800478000000eb0045
:1004b0001a003700e284440032a0b4009905ba0063
:1004c000e284440032a0b4009906ba00e2844400f9
:1004d00032a0b4000006eb00476fde00fd07b2005b
:1004e000636ce10003003a00ebff07000000eb0043
:1004f0000a003700606ce10004003a00005deb0088
:100500008b05e900fdff3e00040037006168e10053
:10051000010032000086eb000b00070019c7ba008b
:100520001905ba000e04e00003003a000a00e000da
:10053000e0ff3a0000000600fe07b2009e018800be
:100540008a047800f5ff3700395dba008b05e900b1
:100550000c003200295dba008b05e900080032006a
:100560000c00e00003003a00e284440032a0b40032
:10057000f5ff370019ddba008b05e900faff3a00f4
:100580008904e800e184440032a0b40000000600c1
:10059000809fbe000000fa0084c0a90000408000d7
:1005a0000000e800004088000140800030408000ea
:1005b000808f50000300340010c0b3000ce8b70077
:1005c0000028ef000dc8bf000004e0000300320067
:1005d000804080000000e800804088000080fa0031
:1005e0004f00be0000400600809fbe000000fa00e1
:1005f0008720a900104080000000e800104088001b
:100600001140800040408000808f50000300340083
:1006100010c0b3000ce8b7000228ef000080fa0019
:100620004f00be0000400600801f78000000fa0066
:100630008660a900704080000000e80070408800db
:100640000dc8bf000004a2000004e0000200320058
:1006500010c0b3000de8b7000080fa004f0078002a
:10066000004006000040da000000fe000000050027
:100670001400200092033700f4ff2f00900337008e
:100680000001be00240007000470a70003f0a100d1
:100690006509b100160032000d0035006828e10040
:1006a00006003500f0ff2f00f1ff27000300e000f7
:1006b00013003b000100280000000500000040007e
:1006c000818048008502e900fcff3a0008003700fd
:1006d000f88f420002003c008000eb0000000500a3
:1006e0008100d1000080d3008502e800fcff3a00c1
:1006f0000300e00002003b0060001000e0801800f2
:10070000000006004f89de00820178008703370071
:100710006011b80095033700c70ade00f107b20088
:10072000f50fb20008003200e1cf420002003200b3
:100730000170a00024000500810f7000010032004c
:100740000408050044000500810f700002003a0013
:10075000140005008502e9000000400081c0480047
:10076000fcff3b000170a0002400050007f82700f3
:10077000078361000638e10004003a00f707200013
:10078000878361008703710001003a0003f0a20033
:10079000889fbe008a9fbe008c9fbe00470ade0075
:1007a0000480a100c71ade000580a1000700280010
:1007b0000785600087856100f70f20000720e100b2
:1007c0009e0032000728e1009c00320001067800fc
:1007d0000400e000b4003200f707200087806000ca
:1007e0000170a0000500e000c0003200f707200003
:1007f000878161000370a000050652000f003a00d7
:100800000b50e1000b0032000308e10002003a0047
:100810000200e1007e003200020450008384580090
:10082000040031000001fd008101fd008402fd0093
:100830008a05fd006044b800210037000520e10072
:1008400005003d000001fd008101fd008402fd0066
:100850008a05fd00050652007a60e10005003500ba
:100860000170a1004722dd00848070008a80700042
:10087000630037006044b800ef02660007ff2f00f6
:10088000070666000500e00006003400f083120051
:100890008714dd000511de00071bdd000601710075
:1008a0008519de007060e10005003500090478005c
:1008b00082047800030178008001eb007006560086
:1008c0000b50e10003003a00020040008380480022
:1008d0000400370060041400e0841c00020058008b
:1008e000838058000188a300060032008100d100f7
:1008f0000080d3008984d3000884d3000402e80078
:10090000270037000178a30025003a000100e0002d
:10091000030032008186cf00698656000a00370046
:100920008c0020000000e00004003a00090078007c
:10093000880478000004eb00700252008086cf002b
:100940000d0646000c06e9007060e1000600350067
:100950008000780009007800880478000004eb002b
:1009600070065600700252000c00e0000c003400cb
:100970008c08dd00f00316000703de00868070009f
:100980000c00dd00074bde00060070008c4cdd0023
:100990000743de00868474000c44dd000c02520024
:1009a0006120e1002000350061016000070028009f
:1009b00087816400f7ff27008783640007037400c2
:1009c0000300e000060032008203730004003200de
:1009d0000000e800e08048000188a3000e003a0013
:1009e000f70f20000720e1004a003d000170a10040
:1009f0004722dd00810072008a8070000000be0086
:100a00004f06be004f05be004f04be0000000600aa
:100a10006000b800faff37008100d1000080d300e9
:100a20000402e800eeff3700040178008901740039
:100a3000a10107008a807000f1ff3700f70107006d
:100a4000070278000001fd008101fd00f3010700ad
:100a500087027800850372000778a3000400320043
:100a60000001fd008101fd0006020700e4ff3700e0
:100a7000850362000768a300080032000b50e10004
:100a800003003200f0ff2f00f1ff2700dcff3700ea
:100a90000001fd008101fd00d9ff37000468a300bb
:100aa000d7ff3200faff3700f8ff27008883600085
:100ab0000b003a000000e00009003a0083036400e4
:100ac00082837300020032000200be00ccff3700b8
:100ad0000b50e100ceff3a000200be00c8ff370015
:100ae00014002000810064003eff3700f8ff27005b
:100af0008883610004003a000200e00002003a002e
:100b00008c007800beff37001500200083016400d0
:100b100039ff370001f82700000020008100750030
:100b2000b7ff3700889fbe008a9fbe008c9fbe0023
:100b30001b0020000202be00058668000600280097
:100b4000060666004709de00f20fb200820032009e
:100b50000243e80080003200c729de00f30fb20034
:100b60007d0032000343e8007b003200f107b20051
:100b70000170a000f507b2000570a000c708dd00f5
:100b80004903de00868070004700dd00c72add00d3
:100b90004923de00868272004722dd0003055100f2
:100ba000040350008583580003003100000040001a
:100bb000818048000a05e9008c1f78008a9fbe00ea
:100bc00004005000858058000402420085824a00db
:100bd00000004000818048000005eb000004be00da
:100be0006033b8000406be000d48e1005600310035
:100bf000110009004dccd8000c01b8000d02b8005e
:100c00008481410060824a008283530003045c00b7
:100c100084845c0060055d000a00e00025003a0065
:100c2000800578000d40e10049003100880078001f
:100c300007007800110009004d88d8000c01b800a9
:100c40000d02b8008481410060824a0060031100f7
:100c500083835b0004045c00e0845c000900e00026
:100c600021003a004f01be000300e0002b003200db
:100c7000e3016000070673008c81710001003200ff
:100c8000640070004200de004e5edd000c0070006b
:100c9000c258de0001e0a00083010700cf01780008
:100ca000818071004f06be004f05be004f04be009c
:100cb000000006008c8343000d044c00e0844c00cf
:100cc00060054d000000e9000a00e000d4ff32009a
:100cd0008c8343000d044c00e0844c0060054d0003
:100ce0000000e900ceff37000c0343008d834b006a
:100cf00060044c00e0844c000000e9000900e000c2
:100d0000d8ff32000c0343008d834b0060044c007d
:100d1000e0844c000000e900d2ff37004200de0012
:100d20004e5edd000c007000c258de0001e0a00045
:100d3000cf0178000300e000daff3200600010000d
:100d4000e0801800d7ff3700f0ff2f00aaff370020
:100d5000f0ff2f00b9ff37000404be002f01070089
:100d6000870678000004fd008104fd002b010700c8
:100d7000078366000678a300030032000960a7001d
:100d80000800be002c0037000d78a30002003200de
:100d90000800be00280037000778a30026003a00ac
:100da00001f0a10009f0a1000668a30003003200d1
:100db000f1ff2700f0ff2f00baff37000d68a300f6
:100dc000030032000800be008c807000b5ff3700c1
:100dd0000768a30007003a000648a300030032009a
:100de000f1ff2700f0ff2f00aeff37000d48a300f2
:100df000030032006000b8008c807000a9ff37004b
:100e00000748a3000400320001f82700000020007a
:100e10008c807000a3ff3700760107000004fd00fe
:100e20008104fd0002057800720107000802be007f
:100e30008a01780059ff37000160a00012022000eb
:100e4000d240880097ff37000100e0001200320016
:100e50000500e00010003200889fbe008a9fbe009f
:100e60008c9fbe000006eb0001f8a30003003200d7
:100e700060001000e08018000cf0a00005f8a3004e
:100e80000300320060021200e0821a000cf0a2009f
:100e90008005eb0041ff37006000b800020005004c
:100ea000038368000700280007036300470ade0089
:100eb0000480a100c71ade000580a100f70f200002
:100ec0000720e100420032000728e1004000320024
:100ed000889fbe008a9fbe008c1f7800f107b20079
:100ee000f307b2000400e000640032000170a000cb
:100ef0000500e000680032000370a0008505420094
:100f0000eb07b1000204b8000302b8008484440077
:100f100060854a00020ab800848444000a854a00b9
:100f2000030ab80004054500040033000804d0009b
:100f30008984d2000a85d2008b05e9006158e1005e
:100f40003d00350002102000090161000308200067
:100f500089816100f7072000878364000886730099
:100f6000c84cde00c853dd00878474004855de009d
:100f70000300e00006003200820376000400320025
:100f80008904e80060054d000a88a3000c003a00bf
:100f9000f70f20000758e10044003d000a70a1004f
:100fa000c75ddd000a8575008a00730009007800be
:100fb0004f0678004f05be004f04be00000006003b
:100fc0000a05d1008984d3008b05e800f0ff3700c3
:100fd000881f780006047800900007000702780058
:100fe0000001fd008101fd008c00070087027800f0
:100ff000850372000778a300050032000001fd00a0
:101000008101fd009f0007004f04780000000600ea
:10101000850372000748a30003003200f0ff2f0091
:10102000f1ff2700f8ff37000000200001f827003b
:1010300088807000f4ff3700880178004848dd00a0
:10104000808171004848de00c850dd00010070005a
:10105000c850de00060478000b0178001600070077
:1010600088807000d2ff37000500e00005003200e4
:10107000170020003a0007009dff37008103700031
:10108000f9ff3a00860078004f0678004f05be0051
:101090004f04be000000050083037100f9ff320019
:1010a000270020002e00070094ff370001f82700da
:1010b00086807000f4ff37000100e0002600320057
:1010c000610111007810e10023003c006022b800ab
:1010d0007010e10004003500800278000100780003
:1010e0008000eb00700151000200e00009003400b4
:1010f00070031100062add00822ade008603dd006f
:10110000878272000200de00860bdd00070070009f
:101110008208de0084817100f4ff270004826200ef
:1011200084817100040028008482620061026000f2
:1011300005f0a600000006000482710007003200de
:101140000000e800e0804800000006000002be0049
:101150006000b800efff37006000b8000000060034
:10116000889fbe000004eb006138e10016003a00e1
:101170000100e00008003a00c800de004800dd0081
:10118000880020000100e00003003a00c800de00f3
:101190004800dd00680444008184cf00e9845400e5
:1011a000060034008908dd00f08314008703de00a8
:1011b000878070000900dd0009044400610214000a
:1011c0004f04be00000006000300e00008003a00e3
:1011d000c811de004811dd00880020000300e00097
:1011e00003003a00c811de004811dd006804440025
:1011f0008384cf00e9845400060034008919dd009f
:10120000f08314008713de00878171000911dd006f
:1012100009044400e1021400e9ff37002700200020
:1012200001f0a70017002000470bde00f60fb20008
:10123000040032000643e8000a0032004702b3000f
:101240000000060001037800f607b20006037000f4
:1012500002003a000703b300000006008702b30053
:101260000000060001037800f607b20006037000d4
:10127000020032000770a000000006000760a00016
:10128000000006000478a300040032000578a300e3
:10129000030032000168a30001003a000200be0012
:1012a0000160a000000006008101700027003200ec
:1012b0008002eb0001f8a300030032006000100080
:1012c000e080180015002000f40720000202420010
:1012d00020003400f703200087036000060420008c
:1012e0000003630002082000000161004700de00e7
:1012f000c909dd0000807100c708de000600e000bb
:101300000800320087037100060032001000b000b0
:101310000180b0000188a30002003200c108de0095
:101320000402e800f107b200f30f20000320e100ff
:1013300003003d004722dd008100720029003700d4
:1013400001f827000000eb00260037006000b8001d
:1013500000000600680212007f20e1000200340055
:101360006000b8001f0037006011b8007020e10075
:101370000400350080017800010078008000eb0057
:10138000700252000400e00009003400f003120073
:101390000719dd008419de000703dd008681710076
:1013a0000400de00070bdd00060070008408de008c
:1013b000f7ff27008383630087037100060028007e
:1013c00003036300070032000700e00003003a0057
:1013d0006101600002817300020032001000b00061
:1013e0000180b0000500a6000000060001f0a0008a
:1013f000000006004f0ade004709de00f107b200d8
:10140000f20fb2000b003200f207b1000170a00031
:10141000c708dd00c901de00838070004700dd00e1
:101420000400a6000000060060001000e080180024
:1014300000000600810f700001003a000000060065
:101440008182cf000500e00010003e008082cf00c6
:10145000ee8242007028e1000400390007003e00df
:10146000800078000000eb000e003700708312004f
:101470008600de000500dd000a00370070835200a0
:101480008600dd000000eb0006003700e28252001b
:101490008508dd00708312000603de008680700080
:1014a0000500dd007507b0000501ea000400a60094
:1014b0000000060060001000e08018000000060038
:1014c000889fbe008a9fbe00841f78007c000700b2
:1014d0004f00780011003300f0ff2f00838f6c0065
:1014e00006003b00040565000a00a700080037005d
:1014f00009f0a6001000200008003700820f5400f9
:10150000838f5c00030039001000200001003e00c2
:101510000000200009f0a7000000ea004f05be000f
:101520004f04be000000e00000000600881f7800a5
:10153000030478000300e00007003d006000100095
:10154000e080180060011900e081190002003b00f2
:1015500001f02d00030037000400070008f0a70089
:1015600001f0a0004f04780000000600889fbe0034
:101570008a9fbe0000827000040271000482710024
:10158000260032000004be000200be006011b80058
:101590006b092000950220000182cf000a0039006b
:1015a0000541b1000082cf00070039000541b100bc
:1015b0000982cf00040039000541b1000882cf0044
:1015c000010039000541b10005425200120032000d
:1015d0000a003b0082817100610164008100d1003a
:1015e0000080d3008984d3000884d3008b05e800f1
:1015f0000442e800f7ff3a000700370008044400ff
:1016000089844c0000004800818048008b05e90077
:101610000442e900f9ff3a00030007004f05be004d
:101620004f04be00000006008100200061805500cc
:101630000b003d000b00200061fe2f000100e100c7
:101640001d00340082817100610164008904d100b1
:101650000884d3000000e800faff3a00710020007f
:1016600061006400030070000200600009003200a5
:1016700061044400e0844c000988a50005003200a4
:101680008b05e8006808e10002003a008904d100f7
:101690000884d300f20f20000258e10005003d004d
:1016a000c75ddd00f907b200898075000800780089
:1016b000000006000bf827008b00780000000500f2
:1016c0000004be0014fc07000003be000405be00b9
:1016d0000200be0010fc0700844f750000000600e9
:1016e0000400fa00889fbe008a9fbe008c9fbe0047
:1016f0000004be004708de00f00fb20051092000d0
:10170000810f500041003c000806be00e00f54006d
:10171000e08f5c0003003d000805be000bf0a20056
:10172000010037000805be00d1072000810f5000de
:101730000a003c000200200003b024000a00be00a2
:1017400013fc070080bf9f0091bf9f006011b8008d
:101750000800be00d2fd07002b0037000200200069
:1017600003b024000a00be0009fc070002002000ac
:1017700003b02400fdfb07000a01be00fbfb0700cd
:101780000004be000200200003f02300bafb0700a3
:101790000000e000070034000a01be000800be009f
:1017a000fbfb07000200200003f82300effb07000b
:1017b0000f0037000200200003f02b000800be00dd
:1017c000abfb07000000e00006003c000a01be0081
:1017d0000800be00eefb07000200200003f8230013
:1017e000020037000a01be000800be00e8fb070047
:1017f000e00f5600e08f5e0003003d000004be00d5
:1018000009f0a200010037000004be000800be007d
:101810004f06be004f05be004f04be000080fa0018
:0418200000000600be
:020000040000fa
:101824000000fa0041e3a90041a3a9004143a80034
:10183400011a8000f0cf2f0000806000001a880099
:10184400011a8000f0f02f00808060000007200063
:1018540001007000001a88004043a800111a80009b
:10186400f0ff230000806000101a880043a3a90041
:101874004363a8004343a800111a800030f82f00e6
:10188400008060004001b300101a88004203a900e0
:1018940045e3a900211a8000f00f2e0000806000ab
:1018a4000080a000201a8800f0c3b30044e3b7000e
:1018b400411a8000f0f12f0000806000401a880077
:1018c40030812300801a880041e3a8000080fa00d8
:1018d400000006000000fa009021ef009221ef00c2
:1018e400810c800000c0210001007000800c880081
:1018f400900c8000f001b300900c880092e1a900e4
:10190400810c800080ff2f00008060006000b30025
:10191400800c88009a21ef009c21ef00d10c8000fc
:1019240000c0210001007000d00c8800e00c800091
:10193400f001b300e00c88009ce1a900d10c800008
:1019440080ff2f00008060006000b300d00c88008e
:10195400a421ef00a621ef00210d800000c021008a
:1019640001007000200d8800300d8000f001b300ec
:10197400300d8800a6e1a900210d800080ff2f0012
:10198400008060006000b300200d88000080fa0031
:10199400000006000000fa0031058000f08f2f00df
:1019a4000080600000a0a0003005880094c0a8005a
:1019b40084c0a90081058000f0f82f000080600039
:1019c4000060a000800588009720a8008720a90057
:1019d40062c0a9006ec0a90061058000f0ff280064
:1019e400808060000000260001007000600588000f
:1019f4008660a9009660a9000080fa000000060035
:101a04000000fa00c922a900c902a9000080fa0056
:101a1400000006000000fa0081ff0700adff070088
:101a2400dcff0700f6ff0700213a8000f08f2f004b
:101a340000806000203a88000080fa000000060060
:101a44000800fa0010079800210798003207980050
:101a54000000eb00000f78003e009000e80f5000fb
:101a64000f003200e80f500003003c000000e000cb
:101a7400080032001300370001042000810f5000d9
:101a84000a00320001102000810f50000a003200c9
:101a94000c0037000000eb00000f7800090037004d
:101aa40010002000000f78000600370020002000fe
:101ab400000f78000300370030002000000f78008a
:101ac400000000001e009000e30f50002e003200c2
:101ad400e30f500005003c00e10f50000800320005
:101ae400e20f5000170032005a003700e40f500094
:101af40036003200e50f5000450032005500370033
:101b040005e1a8000421a9001e0078000040780027
:101b1400634060000080fb00630060004400dd005f
:101b240022088000f1fc2f00810061000100700098
:101b3400200888002e009000100888000021ef0083
:101b44004400370011e1a8001021a9001e0078000c
:101b540000407800634060000080fb006300600088
:101b64004400dd0082088000f1fc2f008100610048
:101b740001007000800888002e0090006008880032
:101b84000621ef003300370013e1a8001221a90059
:101b94001e00780000407800634060000080fb0075
:101ba400630060004400dd0092088000f1fc2f0017
:101bb4008100610001007000900888002e009000f0
:101bc400700888000a21ef00220037001fe1a800f6
:101bd4001e21a9001e0078000040780063406000c8
:101be4000080fb00630060004400dd00f208800018
:101bf400f1fc2f008100610001007000f0088800f2
:101c04002e009000d00888001421ef001100370046
:101c140021e1a8002021a9001e00780000407800de
:101c2400634060000080fb00630060004400dd004e
:101c340002098000f1fc2f008100610001007000a6
:101c4400000988002e009000e00888001821ef00a9
:101c5400000000000080fa00000006000e00fa00f8
:101c6400200798003207980043079800540798000b
:101c7400650798003e019000ce019000000020000e
:101c840001f82300a6fb07000240220043af240012
:101c940082fc07000200200003002400a0fb0700d0
:101ca4008efe07000200200003f82300aefa0700ae
:101cb40072fa0700000f78001e007800cf80de0063
:101cc4008ffa07005e019000ee01900073fc07009c
:101cd40082fe070069fa0700100798002e009000a2
:101ce400e50f500021003200ee0f500003003200d7
:101cf400e40f50000f0032002a003700800c8000ef
:101d0400670060000000e00005003a00810c8000dc
:101d140080ff2f00008060006000b300800c88000a
:101d24001e007800a00c88001e009000b00c8800f3
:101d34001c003700d00c8000670060000000e00049
:101d440005003a00d10c800080ff2f000080600065
:101d54006000b300d00c88001e007800f00c8800ee
:101d64001e009000000d88000e003700200d80003a
:101d7400670060000000e00005003a00210d8000cb
:101d840080ff2f00008060006000b300200d8800f9
:101d94001e007800400d88001e009000500d880041
:101da400000000000080fa00000006000400fa00b1
:101db400000f7800110798001e0078006101b90037
:101dc4000080eb008080eb0002004000838048002c
:101dd4001201200003002000820f5000838f58005e
:101de400ab003e0000600100a9003700100037007e
:101df40019003700a6003700a5003700210037007e
:101e04002b003700350037003f003700490037000a
:101e1400530037005d003700670037009c0037002f
:101e2400700037007a003700840037008e003700d6
:101e34001e00900000407800614060000080fb00bc
:101e440061006000211680000100a1000100700003
:101e5400201688008e0037001e0090000040780095
:101e6400614060000080fb006100600000004000f1
:101e7400211680000110a1000100700020168800c6
:101e8400830037001e00900000407800614060002d
:101e94000080fb00610060004200dd0061168000ec
:101ea4000120a1000100700060168800780037004e
:101eb4001e00900000407800614060000080fb003c
:101ec400610060004200dd00211680000120a100b5
:101ed40001007000201688006d0037001e0090007d
:101ee40000407800614060000080fb0061006000f9
:101ef4004300dd00211680000130a10001007000c4
:101f040020168800620037001e0090000040780010
:101f1400614060000080fb00610060004400dd005f
:101f2400611680000140a100010070006016880065
:101f3400570037001e0090000040780061406000a8
:101f44000080fb00610060004400dd002116800079
:101f54000140a10001007000201688004c003700e9
:101f64001e00900000407800614060000080fb008b
:101f7400610060004700dd00611680000170a1006f
:101f84000100700060168800410037001e009000b8
:101f940000407800614060000080fb006100600048
:101fa4004800dd00611680000180a100010070007e
:101fb40060168800360037001e009000004078004c
:101fc400614060000080fb00610060004900dd00aa
:101fd400611680000190a100010070006016880065
:101fe4002b0037001e009000004078006140600024
:101ff4000080fb00610060004c00dd006116800081
:1020040001c0a100010070006016880020003700a4
:102014001e00900000407800614060000080fb00da
:10202400610060004d00dd006116800001d0a10058
:102034000100700060168800150037001e00900033
:1020440000407800614060000080fb006100600097
:102054004e00dd006116800001e0a1000100700067
:10206400601688000a0037001e00900000407800c7
:10207400614060000080fb004f00dd0061168000bd
:1020840001f0a1000100700060168800000000004b
:102094000080fa00000006000800fa00000f780033
:1020a4001107980022079800330798000c68ef0086
:1020b4001e009000cf80de0091f90700040020008c
:1020c40005f023000001be001e007800e3fe0700b7
:1020d400be0090002e00900034ff07000080fa003c
:1020e400000006000600fa00008fbe0022079800d8
:1020f4009720a90002002000433b24001e00be00dc
:1021040087fa070002002000233f240063fb070036
:102114000200200003f0230081fa07006ffd07008e
:1021240056f9070000007800204088002040800015
:10213400304088002040800040408800ae0190007c
:10214400c20020000119200040002000d2ff070037
:102154002e0090000000a20080017800d200200030
:102164000119200050002000cbff07000080fa0076
:10217400000006000600fa00008fbe002207980047
:102184009720a900c24b2700131924001e00be008b
:1021940042fb07000200200003f0230060fa07005e
:1021a4004efd070035f90700000078002040880044
:1021b400204080003040880020408000404088005b
:1021c400ae019000c2002000011920004000200050
:1021d400b1ff0700ae019000d200200001192000d9
:1021e40050002000acff07000080fa000000060049
:1021f4000a00fa00881f7800008fbe0022079800aa
:102204003407980045079800c24b2700131924008f
:102214001e00be0021fb07000200200003f0230083
:102224003ffa07002dfd070014f9070000007800ad
:1022340020408800b104800000202000008060005d
:102244000000e00002003a009720a8008720a900bf
:102254003e019000ce01900000002000813c24004b
:102264002ffa070018c0b3000200200083342400b2
:10227400fef807000000e000010034000044eb0019
:102284000804e000040032000000200001042400df
:1022940030079800410798002e0090000000e000ed
:1022a4002b003a0020408000cf80de0014f90700a4
:1022b4003e019000ce01900019fa0700eff80700e4
:1022c400000078003040880020408000cf80de008d
:1022d4000bf907003e019000ce019000effa0700d1
:1022e400e6f8070000007800404088000200200063
:1022f400833c24003e009000ce009000e7fa0700e3
:10230400def807000000780013002000d20020004f
:1023140080007800500020005fff07003e0190001d
:10232400ce01900000002000813c2400fcf907004d
:10233400d2f807000000780013002000c20020003b
:10234400800078004000200053ff07002d00370074
:102354002e009000e10f50002a003a002040800037
:10236400cf80de00e6f807003e019000ce01900029
:10237400cafa0700c1f8070000007800304088005e
:1023840020408000cf80de00ddf807003e01900091
:10239400ce019000e2f90700b8f8070000007800c9
:1023a4004040880002002000833c24003e0090004e
:1023b400ce009000b9fa0700b0f8070000007800da
:1023c40013002000c200200080007800400020009c
:1023d40031ff07003e019000ce0190000000200074
:1023e400813c2400cef90700a4f80700000078001f
:1023f40013002000d200200080007800500020004c
:1024040025ff07004f0478000080fa000000060052
:102414000000fa00d10c800080ff2f0000806000d3
:10242400d00c8800210d800080ff2f000080600008
:10243400200d88000080fa00000006000000fa0069
:10244400881f780001188000f07f2000808f5000e2
:102454000a00360011188000f07f2000808f5000a1
:1024640006003600120020000000200001f82300be
:1024740040ff07001828ef004d00370001188000c6
:10248400f07f2000808f50001d003600111880005e
:1024940000802000808f500019003e00c040800062
:1024a400e10f500008003a00a0408000b1408000d5
:1024b400a2702d0033c22300b4f80700a0408800a6
:1024c400b1408800040037000000200001f8230018
:1024d400a0408800b1408800a0408000b140800046
:1024e4000002be00120020000000200001f82300ba
:1024f4003fff070010002000c04088002c00370078
:102504000118800000802000808f50001d003e00d4
:1025140011188000f07f2000808f500019003600d1
:10252400c0408000e20f500008003a00a040800044
:10253400b1408000a2702d0033c2230093f807003d
:10254400a0408800b140880004003700000020004b
:1025540001f82300a0408800b1408800a04080001a
:10256400b14080000002be000001eb00000020002a
:1025740001f823001eff070020002000c04088004f
:102584000b0037000118800000802000808f50006d
:1025940007003e001118800000802000808f50004a
:1025a40003003e009aff070030002000c04088006e
:1025b40080408000cf80de0051f8070018c0b300cf
:1025c40022082000832c24002af807000000e000e1
:1025d40001003c000044eb000804e000210032004c
:1025e4000d68ef001028ef0070408000e40f5000e9
:1025f4000a003a001200200000002000413b2400a1
:10260400b8fe0700000000000cc8bf000004a200d0
:102614000004e000fcff3a00120037007040800024
:10262400e60f50000a003a000001eb000000200011
:10263400413b2400abfe0700000000000cc8bf00b3
:102644000004a2000004e000fcff3a00050037008b
:1026540070408000e80f500002003a001000200093
:10266400504088004f0478000080fa000000060003
:102674000800fa00200798003107980002002f0094
:10268400f35724002e009000be00900024f90700a8
:10269400323323003305240000fa07002007980092
:1026a4003107980032332300330524002e009000b4
:1026b400be0090001af9070022852300c32e2400cf
:1026c400f6f90700008fbe001e00be000080fa006d
:1026d400000006000000fa001200200000002000a4
:1026e400812b24007ffe0700000000000cc8bf00ff
:1026f4000004a2000004e000fcff3a0012002000e5
:1027040000002000011324009afe070000000000ce
:102714000cc8bf000004a2000004e000fcff3a0063
:102724000080fa00000006000000fa000001eb003f
:1027340000002000812b24006afe07000000000036
:102744000cc8bf000004a2000004e000fcff3a0033
:1027540012002000000020000113240085fe070061
:10276400000000000cc8bf000004a2000004e00048
:10277400fcff3a000080fa00000006000000fa00a6
:10278400881f7800b01880008000eb00dff7070096
:10279400b7ff070018c0b300020020000311240093
:1027a400b2f707000000e000010035000044eb0030
:1027b4000804e00011003200c01880008000eb0023
:1027c400d2f70700aaff070018c0b30002002000d8
:1027d40003172400a7f707000000e00001003c00f5
:1027e4000044eb000804e00002003200ceff0700c2
:1027f40006003700b7ff070004003700120020006e
:102804000000200001f823005afe07004f0478005e
:102814000080fa00000006000200fa007dfc0700b8
:102824000000eb00000f78000100370000000000fa
:102834001e0078000000e00002003a00fffe0700de
:10284400fbff37001e007800e10f5000f7ff3a004d
:08285400caff0700f6ff370080
:020000040000fa
:10285c000008000014000000000000001408000034
:10286c000600000002000000000080003f01000094
:10287c001a08000002000000000000000000000028
:020000040000fa
:0200000401f009
:04000c00f8ff0000f9
:00000001FF
